:10000000080F0020D5170000AF450000A917000019
:10001000A9170000A9170000A9170000A9170000E0
:1000200000000000000000000000000005150000B6
:10003000A917000000000000AD140000894900006D
:100040008515000085150000851500008515000048
:100050008515000085150000851500008515000038
:100060008515000085150000851500008515000028
:100070008515000085150000851500008515000018
:100080008515000085150000851500008515000008
:1000900085150000851500008515000085150000F8
:1000A00085150000851500008515000085150000E8
:1000B00085150000851500008515000085150000D8
:1000C00085150000851500008515000085150000C8
:1000D00085150000851500008515000085150000B8
:1000E00085150000851500008515000085150000A8
:1000F0008515000085150000851500008515000098
:100100008515000085150000851500008515000087
:100110008515000085150000851500008515000077
:100120008515000085150000851500008515000067
:100130008515000085150000851500008515000057
:100140008515000085150000851500008515000047
:040150008515000011
:1001540053B94AB9002908BF00281CBF4FF0FF312A
:100164004FF0FF3000F070B9ADF1080C6DE904CE2A
:1001740000F006F8DDF804E0DDE9022304B070477E
:100184002DE9F047089E0D4604468A46002B7FD190
:100194008A42174641D9B2FA82F24AB1C2F1200129
:1001A40005FA02F39740944020FA01F141EA030A68
:1001B4004FEA17484FEA144C1FFA87F9BAFBF8FEC6
:1001C40008FB1EA30EFB09F14CEA0343994206D92E
:1001D400FB1802D2994200F224810EF1FF3E591A13
:1001E400A3B2B1FBF8F008FB101100FB09F943EAD4
:1001F4000144A14505D93C1902D2A14500F20E8162
:100204000138A4EB090440EA0E4000211EB1D44099
:100214000023C6E90043BDE8F08702B9FFDEB2FA65
:1002240082F2002A4FD1CB1B4FEA174E1FFA87F8F0
:100234000121250CB3FBFEFC0EFB1C302B4608FBF6
:100244000CF945EA0045A9450AD97D192CBF0123BB
:100254000023A94502D9002B00F0D9800CF1FF3C02
:10026400A5EB0905A3B2B5FBFEF00EFB105508FB88
:1002740000F843EA0544A04505D93C1902D2A0453B
:1002840000F2C9800138A4EB080440EA0C40BDE741
:100294008B4208D9002E00F0B1800021C6E9000588
:1002A4000846BDE8F087B3FA83F1002946D1AB4292
:1002B400C0F0A780824240F2A4800846002EAAD053
:1002C400C6E9004AA7E7C2F12000974001FA02F309
:1002D4004FEA174EC14024FA00F51FFA87F89440FC
:1002E4001D43B1FBFEF02B0C0EFB101100FB08FCB0
:1002F40043EA01439C4509D9FB182CBF0121002185
:100304009C4502D9002900F095800138A3EB0C0329
:10031400ADB2B3FBFEF10EFB113301FB08FC45EA61
:100324000345AC4505D97D1902D2AC4500F289805C
:100334000139A5EB0C0341EA00417AE7C1F120043D
:100344008B4002FA01F705FA01FCE24020FA04F8B6
:10035400E54000FA01FE134348EA0C024FEA134851
:100364004FEA124C1FFA83F9B5FBF8FA08FB1A5549
:100374000AFB09F04CEA054C60450AD913EB0C0C56
:100384002CBF01250025604501D9002D55D00AF167
:10039400FF3AACEB000C92B2BCFBF8F008FB10CCBB
:1003A40000FB09F942EA0C4CE14505D913EB0C0CAE
:1003B40001D2E1453BD8013840EA0A40ACEB090CD4
:1003C400A0FB0789CC4545464A4602D306D1C6451B
:1003D40004D20138B8EB070569EB03022EB3BEEB78
:1003E40005036CEB020C23FA01F20CFA04F42CFA68
:1003F40001F300211443C6E900430CE731463046BB
:1004040009E7841A65EB030301209A4656E7ACF129
:10041400020C3D4424E702383C4434E702383C44AF
:10042400EFE6AEF1020E3B44D9E63146F3E602387C
:100434009C44C1E702383B4468E7AAF1020A9C44A1
:10044400A7E702393D4474E7704700BFF8B5064694
:100454000D460024054FAC4201D10020F8BD2146D1
:10046400325D384603F05FFF0134F4E7A851000021
:10047400002373B5154916488DF8073000F032F89B
:1004840020B1144803F04FFF02B070BD124803F0CE
:100494004AFF0F4D114C124E0D4800F081F818B16F
:1004A400304603F040FFF7E728460DF1070100F05E
:1004B400ABF80028F4D120469DF8071003F033FF71
:1004C40000214FF4004003F0A9FBE5E751040000CC
:1004D40038020020C2510000F251000056520000C0
:1004E400245200002DE9F8430C46074650B926482B
:1004F40003F019FF4FF0FF340C220021384604F0BA
:10050400A0F831E00522002104F09BF8BC601F4CE8
:10051400204604F05DFA50B31D4E1E4803F003FF5D
:100524000025B1464FF0010873793068317943F4FE
:100534008072046913F0010F2368D0F808E008FA08
:1005440001FC14BF4CEA030323EA0C032360DEF826
:1005540000309847044688B109EBC50529790E484F
:1005640003F0E1FE002CC7DB2046BDE8F8832168D8
:100574000A4803F0D8FE6FF00104BDE70135042DED
:1005840006F10806D0D1EFE76E520000544D00008A
:10059400D84F0000AF52000007530000E55200009E
:1005A4002DE9F347044638B9154803F0BCFE4FF073
:1005B400FF3002B0BDE8F0874FF00109114D461E2F
:1005C40000F1030828682F79D0F810A0836801A9E6
:1005D4005B68984748B9DAF80020019B09FA07F7E5
:1005E40053403B4214BF0120002006F8010F46454A
:1005F40005F10805E6D1012300202371D9E700BFE6
:100604006E520000D84F000010B50C4628B90948B6
:1006140003F089FE4FF0FF3010BD83682BB1002238
:100624000521984720700020F6E7FF2218460A703B
:10063400F2E700BF6E5200000B6801330B60014B00
:100644001B68184700000020014B1860704700BF6A
:100654000000002007B50B46002102460191034823
:1006640001A900F0EBF803B05DF804FB3D060000BF
:100674002DE9F84FB0F81890044619F0080893468D
:100684000DD001290CBF49F0100949F02009A0F848
:1006940018908BF31188BFF36F8FBDE8F88F09F0C2
:1006A4000709022907D1204603F04AFE0028F0D0AA
:1006B4000128238B50D16769218B002F15DA256817
:1006C40021F00701C4E9008841F0010121830026DB
:1006D400218B01F0070ACA4502D0A368002B5CD124
:1006E4000DB9002E74D0002358E001F007035A1FFF
:1006F400012A20D821F00701062B256889B2C4E914
:1007040000880CD1002D2B4638BF00232BB1628BFF
:100714001B6801326283002BF8D141F002012046AC
:10072400218303F00DFE06460028D1D0238B43F02D
:1007340020032383CBE7042B0CD121F0070189B2DA
:100744002046218303F0FCFD05460028BFD041F07C
:10075400200121830025BAE7032809D1226923F067
:100764000703166843F00603002523832F46AFE7EB
:10077400042806D1226923F00703566843F00403D2
:10078400F2E7052806D1226923F00703966843F0AF
:100794000503E9E700252E46E8E7012341F00801B7
:1007A40021838BF31188BFF36F8F03BB002D33D1EB
:1007B40016B120462049B0474FF02003EFF3118BC8
:1007C40083F31288BFF36F8F238B23F008032383F3
:1007D400238BDA0628D5012123F010032383B4F8F0
:1007E400189009F0070900297FF45BAF51E7A1686D
:1007F4000029DBD00B68002B38BF002399465246F2
:100804003B462046D1F804B0D847B9F1000FCDD00B
:100814004946D9F80030EEE729463B465246204681
:100824002D6803F0A9FDC1E713F020011EBF23F0DA
:10083400200302212383D2E7A94300002DE9F04FCE
:100844008B4692461C46002591B002909AF800000F
:1008540008B928465EE325280AF1010707D059465E
:10086400029B98470028C0F25583013510E21822F4
:1008740000210AA803F0E5FE9AF80130252B78D070
:1008840000229446164696461046394617F8013B10
:100894002B2B00F09D8000F29480202B00F09B8095
:1008A400232B00F09A8028B19DF8300040F004001A
:1008B4008DF83000BEF1000F05D09DF8300040F0F7
:1008C40008008DF830002EB19DF8300040F0100083
:1008D4008DF83000BCF1000F05D09DF8300040F0D9
:1008E40020008DF830002AB19DF8302042F04002FB
:1008F4008DF830209DF8302002F04400442803D1C4
:100904006FF386128DF830209DF830202A2B42F0A8
:1009140080028DF830207BD19DF831204B1C42F0B1
:1009240001028DF831201A782E2A0CBF01210021F2
:100934009DF8312061F341028DF8312074D15A7849
:100944002A2A6AD000210A260133184610F8012BFE
:10095400A2F13007092F40F28E809DF830200E91CD
:10096400C2F3400040EAD17161F341028DF83020B6
:100974005AE00AF102078DF833309DF83130D90777
:1009840040F1498154F8049BB9F1000F07DA9DF84E
:100994003020C9F1000942F004028DF830205A07D2
:1009A40040F1428154F8048BB8F1000F80F2418188
:1009B4009DF831306FF341038DF831304FF0FF383B
:1009C40037E12D2B0CD0302B7FF46DAF01225CE787
:1009D4004FF0010E59E7012657E74FF0010C54E799
:1009E400012052E733460CFB0202303A1E4616F849
:1009F400010BA0F13007092FF4D9994293D09DF847
:100A040030100D92D20F62F341018DF830108AE755
:100A14000B4600224FF00A0CE8E79DF83120023320
:100A240042F004028DF831201F4617F8012B6C2A7E
:100A340041D025D8682A2BD06A2A46D04C2A4CD0DB
:100A44001F4617F8012B9DF83130782A8DF8332092
:100A540000F2D980572A4DD8412A03D0453A022AB8
:100A640000F2D18004229DF8323062F302038DF843
:100A7400323001239EE006FB01210346303964E74E
:100A8400742A26D07A2ADBD106229DF831300DE073
:100A94005A78682A9DF8312006D1012161F3C602F3
:100AA4008DF831209F1CCCE71346022262F3C60363
:100AB4008DF83130C5E75A786C2A9DF8312001D180
:100AC4000421EBE713460322F0E705229DF83130B9
:100AD400ECE707229DF83130E8E7BDF8303023F425
:100AE400F04323F0020343F4804343F00203ADF8E0
:100AF4003030A6E7A2F15801202900F2848001A039
:100B040050F821F0CD0B00000B0C00000B0C000082
:100B14000B0C00000B0C00000B0C00000B0C000075
:100B24000B0C00000B0C0000690A00000B0C000009
:100B3400CD0B00008D0B0000690A0000690A00005B
:100B4400690A00000B0C00008D0B00000B0C000068
:100B54000B0C00000B0C00000B0C0000D50B00006C
:100B6400CD0B0000F10B00000B0C00000B0C00007F
:100B7400F10B00000B0C0000CD0B00000B0C00006F
:100B84000B0C0000CD0B000001209DF8321003F087
:100B9400780360F30201402B8DF8321002BF9DF8F8
:100BA400301041F001018DF83010632A31D1003B3F
:100BB40018BF01239DF83020C2F340010B4363F3B7
:100BC40041028DF83020D8E602209DF83210DEE78D
:100BD40003219DF8322003F07803A3F1400061F370
:100BE400020243428DF832204341E3E703219DF89A
:100BF400322013F0780F61F3020214BF01230023A3
:100C04008DF83220D6E79DF8303043F001038DF89B
:100C140030300023CEE79DF93020002AACBF4FF0DE
:100C2400FF39DDF83490BAE69B077FF5C7AEDDF8EF
:100C340038800023CDE90D339DF832309DF8312002
:100C440003F00703012BC2F3C30236D1D31E042BD6
:100C540020D8DFE803F00307071F1F0054F8040B34
:100C6400C11704E0073424F00704F4E80201CDE9D5
:100C74000A019DF8303013F0030654D03B46524627
:100C84005946029803F05CFC0028C0F243810544F5
:100C9400BA46DBE554F8040B012A4FEAE071CDE9CA
:100CA4000A0105D19DF828300A9300230B93E0E74D
:100CB400022ADED1BDF92800D2E7022B23D1D31EAC
:100CC400042B13D8DFE803F0030A0A1212000021F0
:100CD4002068231D0A900B911C46CAE7073424F0B0
:100CE4000703F3E80201CDE90A01F5E754F8043BF0
:100CF400012A0A934FF000030B93D3D0022AB8D1F0
:100D0400BDF82830D0E7042B07D1073424F00704BA
:100D1400F4E80201CDE90A01ABE7032B04BF54F860
:100D2400043B0A93A5E79DF833007828B0D86228DD
:100D340022D825283FF493AD5828A9D1DDE90A012A
:100D44000DF1260300930CAA04AB03F0AEFB82461C
:100D5400B8F1000F0DF126000CDB9DF83020A0EB5C
:100D64000A036FF3861298458DF8302002D9A8EB58
:100D740003030D9380463DE06338152888D801A10C
:100D840051F820F0090E00006D0E0000950C0000D3
:100D9400950C0000950C0000950C00006D0E0000F1
:100DA400950C0000950C0000950C0000950C0000BB
:100DB400CB0E0000990E00009D0E0000950C000063
:100DC400950C0000E10D0000950C0000990E000048
:100DD400950C0000950C0000990E0000B8F1000F6E
:100DE400DDF828A00ADB4146504603F016FC002635
:100DF4000AEB0008BAF1000F0CD149E7504603F0A2
:100E040005FCF4E700260A9B0DF111088DF810305B
:100E14000DF1100AA8EB0A0306B101339DF8322044
:100E2400D0066BD5023352060D9948BF0E9A0B4477
:100E340048BF9B18B9F1000F79DD9DF83020A9EB6C
:100E44000309C2F380030393530770D4500664D597
:100E540046B159463046029B984700285ADB039B0B
:100E640001351E46302359E01E0711D413F0100635
:100E740018BF2026DDE90A23002A73F10001BFF61A
:100E84005DAF524263EB43032D26CDE90A2355E7B8
:100E94002B26EFE7002651E70A9848B30DF1260305
:100EA4000093002104AB0CAA03F0FFFABDF8323022
:100EB400824603F0EF0343F4F04343F010030026AB
:100EC400ADF8323044E70A9B072A3FF6E1AEDFE88B
:100ED40002F00D04060D08080D0D1D70D8E61D80E6
:100EE400D6E62846E917C3E90001D1E61D60CFE63E
:100EF400DFF8C4800646A8F1050A8BE7110748BF4E
:100F0400013390E7184603935946029B98470028FB
:100F1400039B04DA11B0BDE8F08F20234D444A4608
:100F2400002AA5EB090109F1FF39EBDC0D4636B1C6
:100F340059463046029B98470028EBDB01359DF863
:100F44003230D90601D41A0706D559463020029BFF
:100F540098470028DEDB01359DF83230DB0607D5E3
:100F640059469DF83300029B98470028D2DB01358F
:100F74000D9E2E44731B002B16DC434652465946E5
:100F8400029803F0DDFA0028C4DB0544A944A9EB68
:100F94000503002B7FF77CAE59462020029B98471F
:100FA4000028B7DB0135F2E759463020029B984709
:100FB4000028AFDB0135DDE735530000044608B5F2
:100FC4004FF02002EFF3118382F31288BFF36F8F87
:100FD40003F0DAFC204600F02BFC034803F0A3F9ED
:100FE40000F0DCF9FCE700BF36530000094B0A4966
:100FF40000F01F024009012808BF0B4603EB8203DF
:10100400D3F8002222F0E04242F04052C3F800221A
:10101400704700BF002584500028845070B54FF0FD
:101024002003EFF3118683F31288BFF36F8F01243B
:101034000C4B0D4DC3F8004502230020C5F8D036F3
:10104400FFF7D4FF2046FFF7D1FFC5F80447C5F8E2
:101054000449C5F8004B86F31188BFF36F8F002055
:1010640070BD00BF001000500040005048B1054B57
:101074001A68054BB2FBF3F2044B504343F00103EF
:10108400184770474000002040420F00D04F000036
:1010940084B004AB03E907009DF80430062B07D1A4
:1010A4000122044BC3F80025BFF34F8F20BFFDE797
:1010B40004B0704700400050F8B505464FF02003D7
:1010C400EFF3118683F31288BFF36F8F0B4B1C6809
:1010D400002C38BF00245CB1094FD4E90132002D43
:1010E40008BF13460BB1387898472468002CF4D114
:1010F40086F31188BFF36F8FF8BD00BF4402002050
:101104004C0200201FB50F4B1A68BAB901221A60AD
:101114000D4A01AB07CA83E807000C4A4AB193E8B9
:10112400070003F024FA002005B05DF804EBFFF794
:10113400C3BF82F31188BFF36F8FF4E705B05DF886
:1011440004FB00BF040000204C0200207345000093
:10115400F0B589B06E461B4C01460546304603F097
:1011640011FA96E8070084E80700207840B30021CC
:10117400154B19606B1C0ED017464FF40046002126
:1011840012480023E6FB0701114AFEF7E1FF0121A3
:10119400281A03F069FD02F0B1FA0120FFF78CFF71
:1011A40094E8070005AB83E807000A4A1AB193E8FC
:1011B4000700FFF76DFFFFF7A5FF02F079FC207829
:1011C40009B0F0BD4C020020040000203F420F0093
:1011D40040420F0095100000014802F061BF00BFBB
:1011E400F84F000008B508B34368042B07D0082B58
:1011F40013D0F3B1006802F097F900200CE000224C
:101204000368D3E8EF1F012903D1C3E8E02F0028C6
:10121400F7D1094808BF104608BD036800201B78B1
:10122400064A03F5807342F82300F5E76FF4E040C3
:10123400F2E70348F0E700BFE98FFFFF0000035027
:10124400EA8FFFFF10B5044618B90D4B0D485B68D3
:101254009847616808290DD031F004030AD011F0D1
:10126400020108D02146084803F0F2FB0023236062
:101274000023636010BD1422206803F0E2F9F7E74D
:101284004C0000205F5300005802002010B50446B3
:1012940018B9164B16485B6898476368042B23D02B
:1012A400082B21D0CBB92368BBB94FF0FF324FF0E4
:1012B400FF3321460F4801F0E5FF08B923681BB945
:1012C4000A4B0D485B68984714220021206803F0FC
:1012D400B8F9636843F002036360206803F0EEFB2F
:1012E400636843F00103636010BD00BF4C0000203D
:1012F4005F530000580200208553000008B540B336
:101304004368042B0BD0082B16D003B300684FF0AE
:10131400FF324FF0FF3302F089F858B115E0012293
:101324000368D3E8EF1F002903D1C3E8E02F0028A6
:10133400F7D10AD1002008BD0368074A1B7803F5DA
:10134400807352F82330002BF4D00448F3E70448A8
:10135400F1E76FF4E040EEE700000350E98FFFFF90
:10136400EA8FFFFF08B5064940231422054803F01D
:1013740054FBBDE808400449044802F0EFBE00BF36
:101384007402002058020020105000000050000099
:10139400014910220A60704710ED00E072B6404027
:1013A40080F31188BFF36F8FBFF34F8F30BF62B6E6
:1013B400BFF36F8F704700BF72B6494081F3118845
:1013C40020BF80F3118862B6704700BF43B2002B80
:1013D40008DB012200F01F0002FA00F0024A5B0958
:1013E40042F82300704700BF00E100E0054B4209CA
:1013F40053F82220012300F01F0003FA00F01040EC
:10140400704700BF00E100E043B2002B01F101018D
:10141400ACBF03F16043064B4FEA4111C9B2ABBF05
:1014240003F5614300F00F0083F80013195470476B
:1014340014ED00E030BFFFF7FDBF00BF0B4A08B555
:101444000B4B22F07F029A60BFF34F8FBFF36F8F75
:10145400D3F8882022F47002C3F8882001F074FEC7
:1014640002F04EFC00F0A8F901F078FE0000000044
:1014740000ED00E0094A0A499368096858679967CA
:1014840008494B6843F080534B60002383F3118871
:10149400BFF36F8F9368986F704700BFF408002004
:1014A4001851000000ED00E013498A684FF0300045
:1014B4001044EFF3098C80E8F01F202080F3128899
:1014C400BFF36F8F0D4F4FF00066CA698A603E60AC
:1014D400506F0023536780F3118802F1300090E8C5
:1014E400F01F8CF3098802F1000004B503F064F8DE
:1014F400BDE8044070470000F408002004ED00E05B
:101504001EF0040F0CBFEFF30880EFF3098081692C
:1015140011F8021C0229FFD001B503F03EF801BD09
:1015240042F8203C009B0B4942F81C3C019B21F0F3
:10153400010142F8183C029B42F8081C42F8143C92
:101544004FF0807342F8043C0023203A026543675D
:10155400704700BF9B440000084B9860436E83F3C0
:101564000B88104681F30988002163B681F3118842
:10157400BFF36F8F0022002302F08DFFF4080020D8
:1015840001B572B60B4A906900281EBF0021916113
:1015940003F08DFA62B6EFF30580A0F110004FEA74
:1015A400C0000549014409C99847BDE80140034901
:1015B40008470000F4080020844D0000C515000011
:1015C400044B9968D869884203D003494FF080528C
:1015D4000A607047F408002004ED00E00E4B9A6A9C
:1015E4009A6A9A6A920708D55A6B9A6A120604D5BF
:1015F40018B19A6A22F080029A620020064B9A6A15
:101604009A6A9A6AD20658BF9A6A9A6A42F0FF02A4
:101614009A620870704700BF00ED00E00D4B9A6AB3
:101624009A6A9A6A920508D59A6B9A6A120404D542
:1016340018B19A6A22F400429A620020054B9A6A11
:101644009A6AD20558BF9A6A9A6A42F47F429A62A9
:101654000870704700ED00E0094B9A6A9A6A986A2C
:101664009A6A9A6A9A6A9A6A9A6A10F480106FEA75
:1016740002426FEA124218BF02209A62704700BF0A
:1016840000ED00E070B53E4B0E465B6800258AB065
:10169400C3F3080385F31188BFF36F8F02F07F4112
:1016A400B1F17F4F11D102F00C0108290DD01207BE
:1016B40001D4064601250022033B8DF80720032BA5
:1016C40056D8DFE803F0044D514A2E46F3E72C4B7D
:1016D400DC6A14F002044BD1DA6A002A17DBDB6AF5
:1016E4005B0014D5B36933F8022C4DF602739A42A9
:1016F4000CD003F1604303F626631B78FBB1012091
:101704000DF10701FFF76AFF044600E034689DF815
:10171400073093B92022314602A802F087FF099BC3
:1017240045B3C3F3080222B96FEA53236FEA432394
:101734000993204602A902F02EFF0AB070BD114B96
:101744001B782BB101200DF10701FFF767FFDBE7E1
:101754000D4B1B889BB2002BD9D0FFF77DFFD3E73D
:1017640000200DF10701CDE700200DF10701ECE7A2
:101774000024CCE723F4FF7323F00103D8E700BF70
:1017840000ED00E029ED00E02AED00E0044B5A6989
:1017940042F010025A615A6942F480625A617047F9
:1017A40000ED00E0EFF30880EFF3098101B5724624
:1017B400FFF768FF01BD00BF002320210348C218C2
:1017C4000133452B82F80013F9D1704700E100E0A2
:1017D400002080F31488BFF36F8F002080F30A8801
:1017E40080F30B8803F062FA00200E490860BFF30F
:1017F4004F8F0D4880F3088800F03CF8202080F3D8
:1018040011880A484FF40061401880F30988EFF307
:1018140014800221084380F31488BFF36F8FFFF70D
:101824000DFE000094ED00E0080F00204810002099
:10183400BFF34F8F0549064BCA6802F4E0621343B5
:10184400CB60BFF34F8F00BFFDE700BF00ED00E0AA
:101854000400FA0500231846054A1168C1F307215C
:101864008B4200D17047936010610133F8E700BFE9
:1018740090ED00E010B572B6002484F31388FFF7EE
:10188400E9FF0E4A234611464FF0FF3403F12000CE
:101894000133102B42F82040F8D100234FF0FF30E1
:1018A40003F160020133102B41F82200F8D162B633
:1018B400BFF34F8FBFF36F8F10BD00BF00E100E097
:1018C400064B9B68834207D1EFF3058323B1044A97
:1018D400536843F08053536002F0C0B9F408002009
:1018E40000ED00E01FB5094C094A234601210948CF
:1018F40000F0DCF800230393074B0121E41A01A84C
:101904000193029400F0DCF804B010BD000007203D
:1019140000000020245000001001002010B50B68C6
:101924000C7A23F01F0204F01F031A43CB686409E6
:1019340023F01F03044943EA440343F0010388608E
:10194400CA600B6110BD00BF90ED00E02DE9F04FBF
:101954008846144606464FF000094A4D85B0C145F5
:1019640005DA7768BFB31F2F05D86FF0150420463A
:1019740005B0BDE8F08FFB06F7D1D6F800A01AF049
:101984001F0FF2D1504602F01BFE834607EB0A00FC
:10199400013802F015FE8345E7D11BF1160FE4D0A0
:1019A400631E5B45E1DBC5F808B0E968C5F808B01B
:1019B4002F6921F01F01D6E900321A44994247F0F9
:1019C4001F0702F1FF3A1CD1574508D131465FFA8F
:1019D4008BF002F0FEFD09F101090C36BFE7314638
:1019E400C5F808B0EB6822F01F0203F01F031A4386
:1019F400EA60E0B202F0EDFD10F1160FB5D0441C20
:101A0400E9E7013B5745E0B223F01F03C5F808B0EE
:101A140006D12A69314602F01F0213432B61E9E71C
:101A2400296901F01F010B432B61314602F0D1FDFE
:101A340010F1160F99D0C5F808B0EA689DF808307F
:101A4400013F62F304038DF808302B699DF80820E8
:101A54005B0863F347128DF80820D6E9003213447B
:101A6400009323F01F033B44441CA3EB0A0AE0B297
:101A74002AF01F03072803933FF677AF6946FFF761
:101A84004DFFBCE790ED00E00522034B5A60BFF325
:101A94004F8FBFF36F8F704790ED00E0BFF35F8F00
:101AA4000022014B5A60704790ED00E010B5034CE2
:101AB4002278FFF74BFF207010BD00BF44090020BF
:101AC4002DE9F74F264D8A4606464FF00008AB46EF
:101AD400244FD0451BDAD6F80490B9F1000F39D061
:101AE40031680846019102F06BFD0199044609EB47
:101AF4000100013802F064FD84424FF014021A4BD5
:101B040008D06FF0150302FB08F84BF8083003B057
:101B1400BDE8F08F14F1160F2C60F8D01978A142AB
:101B2400F5DD02FB08B0BC60BC60FC6800F1080194
:101B3400007B64F30400087138690C79400860F391
:101B440047140C71F96821F01F016960396921F0AB
:101B54001F01296108F1010814350C36B9E700BFEB
:101B64007407002090ED00E04409002038B50E4CC5
:101B74002568082D14D8FFF791FF00200B4B0C4A61
:101B84001A63854205D10B4B1D70FFF77DFF0020C2
:101B940038BD616801EB0011FFF7C0FE0130F0E7CA
:101BA4004FF0FF30F4E700BF3050000090ED00E04C
:101BB400AAFF440044090020014B1860704700BF8D
:101BC400280000200E4A70B5841A05460C20A31084
:101BD4000C4C0E465C43E4B200FB042040217830F8
:101BE40002F044FD011E05DB074B03EBC4046368EC
:101BF4009847002128463346BDE87040184700BF87
:101C040098070020B76DDBB66C5000002DE9F04159
:101C14000C25104E8046841BA3100F4C0F465C43CA
:101C2400E4B2654305F178004021304402F037FD09
:101C3400011E09DB094A7319C3E91C27084B53F831
:101C44003430BDE8F041184740463B46BDE8F0411A
:101C5400184700BF98070020B76DDBB605470000A2
:101C64006C5000002DE9F8430022012106460520AE
:101C7400FFF7CAFB0520FFF7A9FB114801F054F850
:101C8400104B984219D102F092FE00244FF01C0828
:101C94000C27DFF834903569494608FB045002F0FC
:101CA4009EFB002807DB012307FB04551C44042C7E
:101CB400AB67F0D10020BDE8F8836FF00400FAE7C9
:101CC400051D00000000AD0B8C50000001460C23E4
:101CD40000224B43084870B5C4187833D4E91C5625
:101CE4001844226702F0F9FC2DB132462B46BDE8B8
:101CF40070400248184770BD980700200C4D000042
:101D0400052811D8DFE800F0030E10100C0A074B69
:101D1400986F10F0070007D1FFF7D8BF0220FBE748
:101D24000320F9E70120F7E7704700BF9807002078
:101D340008B54FF02003EFF3118183F31288BFF34A
:101D44006F8F124A136843F0020013F0010310600E
:101D54000CD04FF05022D2F80C34D2F80C2413F0EB
:101D6400010303D00A4802F0B8FC012381F311886F
:101D7400BFF36F8F23B1BDE808400020FFF7A6BF73
:101D84000120BDE8084000F0DFBF00BF3808002094
:101D940010080020074BD3E8EF2F22F00201C3E81C
:101DA400E01F0028F7D1D30702D4012001F020B8A6
:101DB400704700BF380800201FB500220123CDE979
:101DC40002236B46084ACDF800D0CDF804D002F0C7
:101DD400C9FC002805DB4FF480420023684601F06B
:101DE40009FC05B05DF804FB3B4700002DE9F8430E
:101DF400012206463949D1E8EF3FC1E8E02F002827
:101E0400F9D133B9364937484B60CB608A6002F068
:101E1400F9FA731E012B32D8012E07D14FF050234B
:101E2400D3F81C3403F00303022B28D002F039FE4C
:101E3400044618B92C4B1B78002B47D14FF02003D4
:101E4400EFF3118583F31288BFF36F8F0124274FBB
:101E5400DFF89C80DFF89C904FF05022D2F81834C1
:101E6400D2F81824D2030CD503F00303022B01D0BB
:101E7400012E06D124B385F31188BFF36F8FBDE81B
:101E8400F883C4B12846FFF797FA4FF05022D2F8EE
:101E94001835DBB2012BDFD139680029DCD00021F1
:101EA400396039680221C2F818152022C8F8802147
:101EB400C9F80030D0E70021212001F0AFFEE4E7AB
:101EC4004FF050230222C3F80423D8E74FF05023E5
:101ED40002220546C3F80823B9E700BF3C080020E6
:101EE40088070020B4070020460900200451005050
:101EF40000E100E00850005008B50848084B18609D
:101F040002F066FD38B10748FFF756FE0548FEF7B4
:101F14009BFB002008BD6FF01200FBE7244D00007E
:101F2400400800202D1F00000A2838B50446074D3C
:101F340004D1286883680D215B6898472868836802
:101F4400E1B25B689847204638BD00BF40080020D6
:101F540008B5094B1A786AB901210D2019700521B9
:101F6400FFF752FA0D20FFF731FA4FF00042034B0E
:101F7400C3F80423002008BD4509002000D0005008
:101F84002D4BF0B544682D481340834245D00DD8FD
:101F9400062B15D005D89BB1022B40D06FF015004D
:101FA4003AE0B3F5801FF9D1012309E024488342C4
:101FB40037D0B3F5A00F36D0B3F5800FEED102239E
:101FC400D0064CBF0326C2F3401682F480759705F1
:101FD400C2F34020C5F3002506D512F4006F6768EC
:101FE40023D001228A40BA60277A164A164C01F09F
:101FF4001F01012F08BF144640EA4502002004EBEC
:102004008101D1F8004242EA032304F0E04443EAA8
:1020140086032343C1F80032F0BD0723D0E704232D
:10202400CEE70523CCE70323CAE7520542BF0122CA
:102034008A40FA60D8E700BF0600F00006001000EE
:1020440002004000002884500025845010B5094B3C
:10205400094C00F01F024009012808BF234603EB86
:102064008203D3F8002222F4403242EA0142C3F848
:10207400002210BD00258450002884502DE9F84F1B
:1020840003698846D3E90521DE680A4326EA020685
:10209400374601244FF00009D0F804A01B69DAF890
:1020A4000420DFF868B015695D40174B26EA050582
:1020B40017B92846BDE8F88F3C4220D09AF808208A
:1020C40009F01F00344240EA421012D141090129AB
:1020D40014BF5946194600F01F02803251F82220DD
:1020E400C2F30142022A02BFD8F800202243C8F8F2
:1020F40000200021FFF7AAFF034B27EA040709F198
:1021040001096400D4E700BF0028845000258450EE
:10211400F7B50E46416806F01F05097AB2F5A03FEF
:10212400076945EA411511D15F4CDFF888C1680998
:10213400012814BF2046604605F01F01803150F885
:102144002110C80707D56FF0850093E0B2F5005F52
:10215400F96800F091800121F868B1400143F96009
:1021640001217869B140B2F5A03F0CBF0843884310
:1021740078610020BA69B3F5C02F0CBF0A438A43C3
:10218400BA613A69B3F5802F0CBF114322EA010109
:10219400464A3961D2F80433DBB200F5A27152F831
:1021A4002110C1F305218D426BD123FA00F1C90737
:1021B40067D5830003F1A04303F55043D3F810150A
:1021C40021F00101C3F8101501238340C2F808333C
:1021D400C0B200F0FBFE28460021FFF737FFF86885
:1021E400F04010F0010045D07869F04010F001048F
:1021F4004ED0BB690DF10700F340DB0757BF3969C7
:10220400032621FA06F606F001065CBFC6F10206B3
:10221400F6B200F0FDFE264B984236D100209DF820
:1022240007102D028B0003F1A04303F55043D3F8AC
:10223400102505F47C5522F44F3222F44072C3F881
:102244001025D3F8102515438A0002F1A04202F5A7
:10225400514245EA0646C3F8106510601268D3F887
:10226400102542F00102C3F8102501230F4A8B40C8
:10227400C2F8043303B0F0BD0120B04021EA0001EC
:102284006DE70130082888D1A5E76FF01200F1E767
:1022940039692846F14001F00101C1F10301C9B2D5
:1022A400FFF7D4FE2046E5E70025845000D0005017
:1022B4000000AD0B00288450F0B5002485B0CDE9B2
:1022C4000044CDE90244264E35685DB102A9254893
:1022D400FFF7D4FE03A900902348FFF7CFFE019037
:1022E40034603368002201269446204CD4F8043329
:1022F40006FA02F119421BD0910001F1A04101F547
:1023040051410B68A3B102F5A27354F8233004AF12
:10231400C3F3403007EB800050F8107CC3F3042370
:1023240006FA03F33B43C1F800C040F8103C0B68C5
:102334000132082ADAD1009A1AB10A490C4802F08B
:102344002CFA019A1AB108490A4802F026FA2DB16A
:10235400044802F085FA044802F082FA05B0F0BDA0
:102364007CD10050544D00006C4D000000D0005052
:102374004808002064080020F0B54B79012B2CD0CC
:10238400032B27D110278B79032B23D1CD792DB1A2
:10239400012D1FD143685B689B071BD00A79012A72
:1023A4001DD0022A1FD0AAB914460B684668B3F59B
:1023B400164F36686ED033D8B3F5165F6DD01CD87F
:1023C400B3F5966F6BD010D8B3F5967F6AD0B3F59A
:1023D400167F6AD06FF085005BE00027D3E74FF4E7
:1023E40080740E22E1E70024FBE7B3F5166F5FD09B
:1023F400B3F5965FEED1394B3EE0B3F5E14F5AD0D9
:1024040007D8B3F5615F58D0B3F5964FE2D1344B9A
:1024140032E047F6122C6345DCD14FF400032BE085
:10242400B3F5613F4BD013D8B3F5963F4AD009D8E2
:102434004DF6C02C634547D0B3F5614FCAD14FF474
:102444006B0319E0B3F5E13FC4D14FF0EB7313E034
:10245400B3F5612F3BD009D8DFF898C0634539D074
:10246400B3F5E12FB6D14FF0E86305E0DFF888C09B
:102474006345AFD14FF08053C6F8243503692C432C
:102484003A432243043303C9C6F86C2583E80300A6
:102494000020F0BD4FF41D03EEE7124BECE74FF4C0
:1024A4009E23E9E74FF4A033E6E74FF41C33E3E758
:1024B4004FF41D23E0E70C4BDEE70C4BDCE74FF059
:1024C4006C73D9E70A4BD7E74FF46503D4E74FF0B1
:1024D4007063D1E74FF08063CEE700BF00B0130014
:1024E40000A04E000050270000C0750000F03A0024
:1024F40000903A0190D0030040420F0010B5094B00
:10250400094C00F01F024009012808BF234603EBD1
:102514008203D3F8002202F0E04242EA8102C3F8C7
:10252400002210BD0025845000288450F8B50546CB
:102534000F46066902F0B5FA10B92C4B1B7883B923
:102544004FF02003EFF3118483F31288BFF36F8FEE
:10255400284602F0F4F928BB84F31188BFF36F8F87
:10256400EEE76424284602F0EAF970B9012002F08B
:102574001CFA013CF6D10021212001F04FFBF0E7C9
:1025840084F31188BFF36F8FF5E74FF02003EFF367
:10259400118483F31288BFF36F8F284602F0CFF9BA
:1025A4000028EDD0012206F8107F69680B68C3F893
:1025B4004465C3F848250022C3F82021D3F820013C
:1025C400C3F85821D3F858214A68D20641BF0822DB
:1025D400C3F800254FF48002C3F8042301229A6053
:1025E40084F31188BFF36F8FF8BD00BF4609002044
:1025F400064B074900F01F024009012814BF184682
:102604000846012393408360704700BF002584502F
:1026140000288450094B0A4900F01F024009012890
:1026240008BF0B4603EB8203D3F8002202F0E0421A
:1026340042F00302C3F80022704700BF0025845013
:1026440000288450F8B50746012100220820FEF72F
:10265400DBFE0820FEF7BAFE00237D683E692C6885
:10266400A868C4F800353760FFF7C2FFA868FFF711
:10267400D1FFE868411C02D0297EFFF73FFFD5E96E
:1026840002232869C4F80C25421CC4F8143502D06E
:10269400697EFFF733FF6869431C04D0FFF7A8FF86
:1026A4006869FFF7B7FFD5E9043239693846C4F8D9
:1026B40008250431C4F81035FFF75EFE07460028EC
:1026C4003FD16B68190713D506F1120000F056FCD0
:1026D4001E4B984237D1B37C43F00043C4F8A03179
:1026E400C4F88C300123B27C9340194AC2F80435F3
:1026F4000823C4F80035EB6801330CD00023C4F878
:102704001031D4F8103106F11103C4F83435012323
:10271400C4F8383523606B6810361A075CBF4FF471
:102724008072C4F80423DB0644BF4FF48003C4F86A
:1027340004330023C4F84465C4F848350123A36076
:10274400E3603846F8BD6FF00407FAE70000AD0B0C
:1027540000700150194970B5044622F07F4608689C
:10276400C1E90023A6F50013101AB3F5400F4FF08A
:1027740000050AD20125124B19680A060B0A9219A0
:10278400104943F10003C1E9002301F0ABFBA300AE
:1027940003F1502303F58033D3F84025B2420BD123
:1027A4001DB94FF40002C3F840254FF48030064BA6
:1027B40000FA04F4C3F8444370BD00BF28010020AC
:1027C40084080020100100200050015001238340A0
:1027D40010B5DC430D4AD2E8EF1F01EA040CC2E84D
:1027E400EECFBEF1000FF6D14FF4803202FA00F0C2
:1027F40002F15022C2F80803BFF35F8FBFF36F8F5B
:102804000B4214BF0120002010BD00BF800800202F
:1028140001230E4A8340D2E8EF1F1943C2E8EC1F9C
:10282400BCF1000FF7D14FF48033094A8340C2F85A
:102834000433084BD3E8AF3F23FA00F0C30742BF89
:102844004FF40012044BC3F80021704780080020A5
:10285400005001507C08002000E100E00D4B1B6893
:10286400190A1806BFF35F8F0B4BD3F80435C01851
:1028740041F10001B3F5801F0AD2084BD3E90023CC
:10288400994208BF904203D210F1807041F10001D7
:10289400704700BF84080020005001501001002040
:1028A4002DE9F74F16461F460546FFF78FFF0090A8
:1028B400FFF7D4FFB94208BFB0427BD200234FF0E8
:1028C4008072B6EB000867EB01094B4508BF42452F
:1028D4007DD3404B03EB0513D3E902239F4208BF8A
:1028E400964251D04FF4803B26F07F4214464FEA83
:1028F400850905F1500809F150294FEA880809F5BE
:1029040080391FFA88F808F15028D9F84005324B6D
:1029140008F580380BFA05FBD3F804A5A0EB0A00F0
:1029240020F07F402AF07F410128C9F8401505D1E5
:102934000192132002F0B6F9274B019A0AF1020C16
:10294400A4EB0C0020F07F400021B0F5000F88BFFD
:102954006446C8F80010D8F8000024F07F40C3F89B
:1029640044B3C9F84005D3F80405824506D0201ABB
:10297400023820F07F40B0F5000F19D8A41A24F0D3
:102984007F44321947F10003124C290104EB05106E
:10299400C0E902230C9A0D9B625000244360009B03
:1029A40013B12846FFF734FF204603B0BDE8F08F8B
:1029B4002046B1E70123094AAB40D2E8EF1F19438F
:1029C400C2E8E01F0028F8D132463B46DCE76FF04E
:1029D4001504E4E718010020005001507C08002091
:1029E400334B2DE97343D3F804339A0709D5314B9C
:1029F4001A6832B100221A602F4A1B681368013327
:102A040013604FF02003EFF3118283F31288BFF3B6
:102A14006F8F274BD3F80433DB030ED5274BD3E852
:102A2400EF1F21F00100C3E8E40F002CF7D1244B81
:102A3400002936D11968002933D1002382F3118883
:102A4400BFF36F8F53B3FFF709FF04464FF0200322
:102A5400EFF3118083F31288BFF36F8F194B0022B9
:102A6400D3E90289494508BF44451FD3D3E9001679
:102A74004FF0FF344FF0FF351A604FF48032C3E952
:102A840002450B4BC3F8482380F31188BFF36F8FC3
:102A940021B142464B4600200096884702B0BDE86B
:102AA4007083002119601B680123C7E71146EBE717
:102AB4000050015004510150840800207C0800207B
:102AC400405101501801002073B500244FF0FF302D
:102AD4004FF0FF31174D184BC5F80845C3E9020103
:102AE4004FF4803302264FF40012C5F80433134B1D
:102AF4000121C5F804631520C3F880212246FEF79E
:102B040083FC1520FEF762FC01230D4AC5F804631B
:102B140013600C4A2B6013600B4B0C4A0093204645
:102B240000230194FFF7BCFE3046FFF75FF920460F
:102B340002B070BD005001501801002000E100E017
:102B4400085001508008002059270000FFFF7F0033
:102B5400144B13B5B0F1FF3F08BF1846441E002CB8
:102B64001DDD9C42A8BF1C46FFF778FE0E4B0F49A3
:102B7400D3E90023801AB0F5000F28BF00240130E8
:102B8400044408480091844228BF044600201219D6
:102B9400019043F10003FFF783FE02B010BD00244F
:102BA400E2E700BFFFFF7F00280100205927000053
:102BB40008B5FFF753FE024B1B68C01A08BD00BFDF
:102BC40028010020064B1B68072B07D1054B1B6807
:102BD400023B032B02D8044AD05C704700207047A4
:102BE4003001FF003401FF00E65300004FF0502392
:102BF400D3F85825034B02F00302D340024A136072
:102C0400704700BF0020A1074000002008B5FFF76F
:102C1400D9FF48B1394B1A6832B90D211960012125
:102C2400A3F5827319601A600022D30003F57F03B1
:102C3400D3F80013013107D0D3F800130132D3F8CD
:102C44000433202A0B60F0D1FFF7BCFF00284ED1DB
:102C5400FFF7B8FF38B12A4B2A4A1A604FF05023C5
:102C64000122C3F85825284B1B68072B0AD1274B90
:102C74001B68023B032B05D8254AD35C13B1002201
:102C8400244B1A60FFF79EFF50B14FF05023D3F846
:102C94000024D10742BF0022C3F81421C3F818212D
:102CA400194B1B68072B09D14FF05023D3F800248C
:102CB400D20744BF6FF00102C3F80024FFF782FF7C
:102CC40010B16522144B1A60144AD2F88C3043F4C4
:102CD4004063C2F88C30124A124B1168C3F8441591
:102CE400D269C3F84C25BDE80840FFF77FBF29220D
:102CF400094B1A6003221A63AAE700BF204A005056
:102D0400309503504400EFBE3001FF003401FF0052
:102D1400EA5300004C2503500C47005000ED00E03E
:102D24000080FF0000600050044B1A7922B9012290
:102D340018601A71024870470248704788080020DA
:102D44000000AD0B0C00AD0B032847D8DFE800F002
:102D540002222D3A4FF05022D2F81834D2F8181427
:102D6400C90311D503F00303022B0DD1C2F81835A2
:102D740000221B4B1A601B6802224FF05023C3F839
:102D8400042301229A6070474FF050230122C3F8B4
:102D94001825EDE70022134B1A601B6801224FF03F
:102DA4005023C3F804231A60704700220E4B1A60A4
:102DB4001B684FF400724FF05023C3F80423012220
:102DC4001A6270470022094B1A601B684FF4807224
:102DD4004FF05023C3F8042301229A61704700BFC7
:102DE4000451005000510050245100502051005013
:102DF40070B5044603283ED8DFE800F002223E4BBB
:102E04004FF050230222C3F80823002203F58273F3
:102E14001A601B68284B012242F210754FF05026AD
:102E24001A60022C42D0032C43D024BBD6F81834A9
:102E3400DB0320D5012001F0B8FD013DF1D11AE0FA
:102E440001234FF05024002142F210751B4AC4F8AC
:102E54000833116012681A4A1360D4F80C34D4F899
:102E64000C2403F00103D20305D523B1012001F0A2
:102E74009CFD013DF1D170BD4FF050234FF4007221
:102E8400C3F80823002203F592731A601B680D4BE4
:102E9400C1E74FF050234FF48072C3F80823002297
:102EA40003F590731A601B68074BB4E7D6F85C34DB
:102EB400BEE7D6F85434BBE70C5000500051005024
:102EC40004500050245000501C500050264B10B5A4
:102ED4001A6852B1002018601B6801224FF0502379
:102EE400C3F80823214B1B689847214B1A688AB101
:102EF40000221A601B684FF05023D3F81824D3F82B
:102F0400181402F00302012A4FF0020124D1C3F87D
:102F140018159A60174B1A6862B100221A601B6870
:102F24004FF480724FF05023C3F808230F4B042052
:102F34001B689847104B1A68AAB1BDE810400022DC
:102F44001A601B684FF400724FF05023C3F8082333
:102F5400064B05201B681847C3F80813034B0120D0
:102F64001B689847D6E710BD005100508808002020
:102F7400045100502051005024510050F0B54FF03E
:102F84002003EFF3118583F31288BFF36F8F0C4A8C
:102F94001468E74312D00023D9B227FA01F6F607E2
:102FA40003F10103F8D501238B4023430170054845
:102FB400136085F31188BFF36F8FF0BD0248F8E703
:102FC400900800200000AD0B0200AD0B012303FAB2
:102FD40000F010F0FF0F12D04FF02003EFF3118137
:102FE40083F31288BFF36F8F064AD36D23EA000080
:102FF400D06581F31188BFF36F8F0348704703488E
:10300400704700BF940800200000AD0B0400AD0B16
:103014002DE9F041FF22002401260546DFF858E09F
:103024001448DFF85880E3B24FF02001EFF3118C1D
:1030340081F31288BFF36F8F22FA03F1C9070AD50F
:10304400DEF85C1006FA03F7394201BF4046394303
:10305400CEF85C102B708CF31188BFF36F8F404552
:1030640005D006FA03F39A4304F10104DBD1BDE869
:10307400F08100BF0200AD0B940800200000AD0BEE
:103084000E4B70B553F82040013053F82060A6422F
:1030940000D870BDD4E900352846984765B1EB687F
:1030A40030B10028B8BF4042FF28A8BFFF201870E5
:1030B4005A7842F001025A700834E8E704510000DB
:1030C4000023012210B586B0CDE904230F22019319
:1030D400CDE9023218230B4A0B4C03FB00234FF4B7
:1030E400A0720A4904EBC01402FB001100932046AD
:1030F400074B00F0F7F8637B23F00403637306B017
:1031040010BD00BFF408002030010020080F00208B
:1031140005340000012208B5094B02201A70FFF79C
:10312400AFFF00F063FF0320FFF7AAFF00F00AF9E6
:10313400FDF79EF9034A137B23F00103137308BDC3
:1031440046090020B00100200248034A0021121A57
:1031540001F077BA10010020040B002080B5304B39
:10316400A6B003F5006888F3088883F30A8800246E
:10317400E0232C4D2C4E85F82230EC772C766C769F
:10318400AC7685F820406B6ADFF8B09043F4E02316
:103194006B6285F82340FEF7F9FAFEF7F9F84FF071
:1031A400FF33AB62EB62FEF7E1FCFEF79BFB40F200
:1031B4000113ADF8243006ABB360CDE91F4401F030
:1031C40006FC2046FFF75CFF0120FFF759FF00F0E3
:1031D4008BFC164B164D0593012316494FF4806260
:1031E400CDE9034328464B46CDE901440094F561FB
:1031F40000F078F807466A7B284622F004026A73D6
:1032040001F095FC2046FFF75BFF0B4B4A4639461D
:103214002846F3603475C6F80480FEF79DF900BFB4
:103224004810002000ED00E0F4080020EE530000F8
:10323400B0010020080B00203001002019310000EB
:1032440070B50E4B0E4CA34201D3002070BDD3E9E0
:10325400030141EA000212F003020BD19D685A6196
:10326400AA4201D11C33EEE75E6901320E60596156
:103274000144F5E76FF01500E8E700BFC000002047
:10328400C0000020D3B50C4616461F464FF020035D
:10329400EFF3118183F31288BFF36F8F43695BB13E
:1032A40023601B684361836901338361002081F3D8
:1032B4001188BFF36F8F11E056EA070203D16FF054
:1032C4000B002360F3E70246CDE90067083000F005
:1032D4005DFB18B9024B9B685B69236002B0D0BDEB
:1032E400F40800202DE9FF410E9E00F158050673F5
:1032F4000426C0E916550025044646730D9EC0E910
:1033040006558673D61D0C9A26F00706C0E91916D1
:103314008560C573C56602920B9A01EB060801929B
:103324000A9A00924246FEF7FBF8054B65659B68D6
:1033340003B11B6F4046236704B0BDE8F08100BFB2
:10334400F40800202DE9F0472A4E2B4DB04686B0F4
:10335400B54205F1300410D300F0D0F94FF4004920
:1033640040F2E7360027244CDFF890A0444521D3EF
:1033740006B0BDE8F04700F09BBB54F8043C05934D
:1033840054F8103C049354F8143C039354F8183C38
:10339400029354F81C3C019354F8203C009354E9E4
:1033A4000A2354E90C01FFF79DFF54F8303C5D6596
:1033B4002546CDE7636A5A1C0DD03046394623EAC8
:1033C400E373C9FB0301B94208BFB042256804D1C5
:1033D400284600F07FFA3034C8E74FF47A720023AD
:1033E400FCF7B6FE02460B4605F11800514600F004
:1033F400F1FCF0E7C0000020C0000020534B0000A7
:1034040008B5094C4FF02002EFF3118382F31288C0
:10341400BFF36F8F01F018FCA061FDF799FE00283F
:10342400F0D1FDF7BBFFEDE7F40800202DE9F341EF
:10343400044616461F464FF02003EFF3118883F32A
:103444001288BFF36F8FC368354A6BB18068916887
:10345400884219D056EA070318D188F31188BFF3BC
:103464006F8F6FF00F000CE0916891F90E1001332B
:10347400E36093682161A36088F31188BFF36F8FC1
:10348400002002B0BDE8F0812169F0E791F90E1047
:1034940090F90E306FF07E029942A8BF194691420E
:1034A400B8BF11468B422FDD00F084FA0546224650
:1034B4004146CDE900671B4800F068FA0028E0D0D7
:1034C4004FF02003EFF3118683F31288BFF36F8F5D
:1034D400236821699C420AD04BB193F90E3099427A
:1034E400A8BF19466FF07E039942B8BF1946A06879
:1034F40090F90E30994209D16DB13146094800F076
:10350400EBF86FF00A00BCE70025D0E700F052FAB0
:103514000028F2D1F0E786F31188BFF36F8FF0E74C
:10352400F40800204709002038B583680446002BBE
:1035340036D01E4A9268934235D1DA7B013ADA7367
:10354400C368012B05D9013BC36000F0B1FA002028
:1035540038BD4FF02003EFF3118583F31288BFF3D6
:103564006F8F0169806890F90E30994201D000F0A4
:1035740021FA204601F03AFBA06058B190F90E20E0
:1035840022610022826701F0D2FA2946084800F03D
:10359400A3F8DAE7E06085F31188BFF36F8FD4E70F
:1035A4006FF01500D4E74FF0FF30D1E7F4080020A6
:1035B4004709002038B504464FF02003EFF3118586
:1035C40083F31288BFF36F8F01F010FB48B1002220
:1035D400826701F0ACFA2946BDE83840044800F09F
:1035E4007BB8D4E902329A4218BF0133A360F2E7F0
:1035F4004709002037B514461D464FF02003EFF36A
:10360400118183F31288BFF36F8F836843B1013B49
:10361400836081F31188BFF36F8F002003B030BD46
:1036240054EA050306D181F31188BFF36F8F6FF05D
:103634000F00F3E70246CDE90045024800F0A6F981
:10364400ECE700BF4709002010B5084C23685BB1C4
:10365400FFF7AEFA03462068054A03440021BDE89B
:103664001040136101F000BB10BD00BF240900200D
:10367400F4080020F8B504460D464FF02003EFF39C
:10368400118683F31288BFF36F8F00224FF4004733
:1036940040F2E73000210D4BE7FB04011A610023DF
:1036A4004FF47A72FCF754FD002C094B09DC1860C6
:1036B400084B1D60FFF7C8FF86F31188BFF36F8FB7
:1036C400F8BD0228B8BF0220F1E700BFF4080020CB
:1036D400240900202009002049B9EFF3058030B9FE
:1036E400054BDA699B689A4201D0FDF7C3BE81F3AA
:1036F4001188BFF36F8F7047F40800204FF0200348
:10370400EFF3118183F31288BFF36F8F044B9A6830
:10371400D37B013BD37381F31188BFF36F8F704761
:10372400F408002038B502460C4801F0F6F90C4DB7
:10373400044600B9EC68AB684AB95A7BD20606D194
:10374400A26922B9DA897F2A01D9EB6138BD9C428A
:1037540001D0FFF779FFEC61F8E700BF14090020FE
:10376400F408002070B590F90D200146002A437B2F
:1037740004DA03F07F03437301F0A7F9174A4B7B84
:10378400104663F07F034B7350F8203F556A834221
:1037940008BF0023002B38BF0023CBB191F90E6082
:1037A40093F90E40A6420FD0A41B002C0CDD5868E0
:1037B400C1E90030016059609068BDE87040431A67
:1037C40058425841FFF7AEBFAB4201D01B68E4E753
:1037D400C1E9000529605162EEE700BFF40800204A
:1037E400014670B54FF02003EFF3118483F3128880
:1037F400BFF36F8F164B174A98681568A8421D4689
:1038040006D1FFF721FF84F31188BFF36F8F70BDDA
:1038140000261660104A1268BAB1C2897F2A14D8E9
:10382400427BD20611D10D4A90F90E60126896427D
:103834000BDB0B4A904208D01A698A4202DCFFF77C
:1038440091FFDEE7521A1A61DDE700232B61DAE704
:10385400F40800201C09002024090020200900206D
:103864003001002070B490F90D30427B002B2DDB29
:10387400D3062BD183694BBB154962F07F02427397
:103884000A4652F8204F4D6A944218BF2346002B33
:1038940038BF0023ABB190F90E6093F90E40A642F5
:1038A4000BD0A41B002C08DD5A68C0E9003210605C
:1038B4005860002070BCFFF735BFAB4201D01B68D5
:1038C400E8E7C0E9002528604862F2E770BC704769
:1038D400F408002010B54FF02002EFF3118482F3B6
:1038E4001288BFF36F8F427B510704D484F311888D
:1038F400BFF36F8F10BD22F004024273FFF7B2FFD3
:103904002146BDE810400148FFF7E6BE4709002004
:1039140008B590F90D200146002A437B04DA03F030
:103924007F03437301F0D1F8044B9868431A58425B
:103934005841BDE80840FFF7F5BE00BFF408002079
:103944002DE9F041064614461D464FF02003EFF3DF
:10395400118783F31288BFF36F8F01F01AF987F38D
:103964001188BFF36F8F6B1C08BFB4F1FF3F08D001
:1039740022462B4606F118000349BDE8F04100F049
:1039840029BABDE8F08100BF534B000010B50C46C6
:10399400064B11469868064B1860DDE90223FFF7D1
:1039A400CFFF2046BDE81040FDF764BDF4080020B9
:1039B4001C090020F8B504464FF02003EFF31186EC
:1039C40083F31288BFF36F8F437B49B2DA0638D191
:1039D4008569002D35D103F07F03437301F075F839
:1039E400437B817363F07F0343731748034653F8A3
:1039F400207F9F4218BF3D46002D1A462B4638BFF4
:103A04000023476AC3B193F90E50A94210D06D1A2E
:103A1400002D0DDD5A68C4E9003214605C60012099
:103A2400FFF780FE012086F31188BFF36F8FF8BD86
:103A3400BB4201D01B68E5E7C4E900273C6044624F
:103A4400EDE70020A173EEE7F408002070B504460A
:103A5400183001F0E3F84FF02003EFF3118683F3FD
:103A64001288BFF36F8F94F90D20637B002A05DA67
:103A740003F07F032046637301F027F80B4D637B4B
:103A8400A86843F010036373031B58425841FFF7BF
:103A940049FE86F31188BFF36F8FAB68A34203D14D
:103AA400BDE8704001F02FB870BD00BFF4080020DD
:103AB40010B54FF02003EFF3118483F31288BFF3A2
:103AC4006F8F084B00209A68D37B0133D373FFF7C1
:103AD40029FE84F31188BFF36F8FBDE8104001F015
:103AE40012B800BFF40800200021044B084603F17B
:103AF4002002C3E90822FFF7BDBD00BFF40800207F
:103B0400F8B54FF02003EFF3118483F31288BFF369
:103B14006F8F1B498868437B03F07F03437300F076
:103B2400D4FF08468A68537B63F07F03537350F8CD
:103B3400203F4E6A834208BF0023002B38BF002376
:103B4400CBB192F90E7093F90E50AF420FD0ED1B2A
:103B5400002D0CDD5968C2E900310A605A60012069
:103B6400FFF7E0FD2046BDE8F840FDF783BCB34213
:103B740001D01B68E4E7C2E9000632604A62EEE75E
:103B8400F40800202DE9F04104460D4654EA0501ED
:103B940004D1FFF7B5FF0020BDE8F0816FF001010B
:103BA4000A1A4FF0FF3161EB0503012A73F1000398
:103BB4002ADA01F073F806194FF02003EFF31188A5
:103BC40083F31288BFF36F8F114F124BB8681860DC
:103BD400FFF79EFEB868104922462B46183000F0C5
:103BE400F9F8BA684046537B43F010035373FDF76A
:103BF40041FC01F053F8301A66EB0601012871F11B
:103C04000003B8BF0020C7E76FF00106361AD3E7F8
:103C1400F40800201C090020534B000008B50B4693
:103C2400013308BFB0F1FF3F06D1084B9868FFF796
:103C34000DFF4FF0FF3008BDFFF7A4FF4FF47A7378
:103C440080FB0323D00B40EA4340F4E7F408002050
:103C5400014B9868704700BFF40800202DE9F0413B
:103C640004464FF02003EFF3118683F31288BFF369
:103C74006F8F437B1A0705D586F31188BFF36F8FC7
:103C8400BDE8F08123F0200242F00801D20920D1DE
:103C94004173A36813B1204600F01FFF04F118001C
:103CA40000F0BCFF4FF0000804F15807A56DBD42B9
:103CB40000D0B5B90120FFF735FD104B9B68A34236
:103CC400DAD1EFF30583002BD6D13046FDF7D2FBD2
:103CD400D2E703F05F0343F00803437300F0F5FEFB
:103CE400D7E7284600F0F9FE05F1180000F096FF2A
:103CF4002846C5F87880FFF7B5FDD7E7F40800201B
:103D040008B50648064A0749121A00F08FFCBDE8B8
:103D14000840054A0549064800F088BC0000002018
:103D24001001002028540000000000002854000066
:103D340000000020034B1B680BB9FEF739BF0020BD
:103D4400704700BF2809002030B5036868B10A4AEB
:103D54005268904209D043B1D3E90421D0E9044523
:103D6400121945EB0101C3E90421426813605A604A
:103D74000023C0E9003330BD4400002038B5134BA4
:103D84001C689C4208BF0024FFF7D4FF0546BCB161
:103D9400D4E90401401B61EBE571012871F10003D2
:103DA40011DB6FF000420023824273EB010400DA5E
:103DB4001046074B1B6913B19842A8BF184638BD7B
:103DC4006FF00040F5E70020F3E700BF4400002057
:103DD400F4080020B3F1FF3F08BFB2F1FF3F2DE923
:103DE400F74F044692469B4673D081604FF0200300
:103DF400EFF3118583F31288BFF36F8F6FF0010324
:103E04004FF0FF32B3EB0A0862EB0B09B8F1000F75
:103E140079F100011CDB3048D0E900105B1A62EB39
:103E24000002B3EB0A0662EB0B07012E77F10003E5
:103E3400BCBF01260027C4E90467284AD2E9003C34
:103E440093421ED1C4E9002CCCF8004054602DE00C
:103E5400FFF770FF1AF1010300934BF10003019384
:103E6400DDE90023121843EBE073C4E90423E4E71B
:103E7400B6EB080067EB09016345C4E90401E1D02E
:103E84001B68002BDED0D3E90489D4E904674645D6
:103E940077EB0901ECDAB8EB060069EB0701C3E93B
:103EA40004015968C4E900310C605C6013689342F2
:103EB4000BD09C4209D1FFF761FF18B1084B1B6975
:103EC400834202D00021FEF743FE85F31188BFF33D
:103ED4006F8F03B0BDE8F08F300200204400002053
:103EE400F40800202DE9F74F0646FFF779FC4FF060
:103EF4002003EFF3118483F31288BFF36F8FDFF88D
:103F0400B0A02A4D5146DFF8ACB02E60D5F800C001
:103F1400DBF800006246DAE90089D3175845CDE999
:103F240000230DD060B1D0E90467B445BB411DDA6C
:103F3400009BB6EB030C019B67EB0306C0E904C6C8
:103F44000026009B2E6013EB0802019B43EB090340
:103F5400C1E90023FFF712FF3146FEF7F9FD84F3B0
:103F64001188BFF36F8F03B0BDE8F08F00220023E8
:103F740018EB060849EBE679C0E90423ACEB060626
:103F8400CAE900892E60FFF7DFFE84F31188BFF3CE
:103F94006F8F836898474FF02003EFF3118483F306
:103FA4001288BFF36F8F0249B0E700BF28090020D1
:103FB400300200204400002010B54FF02003EFF33E
:103FC400118483F31288BFF36F8FFEF7F1FD064B64
:103FD400D3E90023121843F1000384F31188BFF3DB
:103FE4006F8F1046194610BD30020020024A034963
:103FF400034800F098B900BF25540000F3530000B3
:10400400FF53000010B50A4C23681BB101230020A4
:10401400236010BD00F0D4F80028F7D00138072839
:1040240003D8044B53F8200010BD034810BD00BF53
:104034002C0900201C510000FE8FFFFFBFF34F8F9F
:104044000549064BCA6802F4E0621343CB60BFF330
:104054004F8F00BFFDE700BF00ED00E00400FA054C
:104064004FF0FE33002130B4084A094C094D236057
:104074002B601360E360EB60D360A361064A074CD6
:10408400AB616368C2F8001530BC1847085484500B
:104094000054845004548450004084504C00002048
:1040A400024BD0E90012C3E9001270474C00002013
:1040B40010B5044630B16368DB0602D500232360E3
:1040C400636010BD024B03485B689847F3E700BF89
:1040D4004C0000203C51000068B143683BB1DB0652
:1040E40007D5BFF35F8F002303601846704703486A
:1040F4007047034870476FF4E0407047EA8FFFFF52
:10410400E98FFFFF10B5044620B10022112322607D
:10411400636010BD0148FFF7A3FFF6E76451000098
:10412400A0B1436883B1DB060CD50122D0E8EF3F90
:10413400C0E8E12F0029F9D1012BF7D0BFF35F8F3D
:104144000020704703487047034870476FF4E0400D
:10415400704700BFE98FFFFFEA8FFFFF2DE9F041B1
:10416400144C0268C368D0E90156C4E90263C4E987
:104174000025114B0E684868104DC3E90060D1E971
:1041840002760869D5F81411C3E902761861CB06E2
:104194000DD5002305F58870C5E94433C5E96D33B1
:1041A4009047236805F5DA70BDE8F0411847BDE88B
:1041B400F08100BF5C0000206C0000204809002052
:1041C40008B500F00FF828B900F00EF830B9044A29
:1041D400106008BD00F036F8032008BD042008BDB7
:1041E4000C5A84500020704710B5114800F048F86C
:1041F40000B110BD0F4800F043F80028F9D10E4C6F
:10420400204600F03DF80028F3D10C4B0C481C600C
:1042140000F036F801460028EBD100F02DF80446F2
:1042240008B1204610BD00F03FF82046FAE700BF71
:10423400A400002098000020A0000020A800002076
:104244009C00002008B5084800F024F8074800F056
:1042540021F8074800F01EF8064800F01BF8BDE8F6
:10426400084000F00BB800BFA40000209800002014
:10427400A00000209C00002000207047704700BF71
:1042840008B5034B02681B6810689847002008BDF6
:104294005C00002008B5034B02685B68106898470F
:1042A400002008BD5C00002070B5094C094D206950
:1042B400AB68984718B1084B08485B6898470021D9
:1042C400074AEB6811602069BDE87040184700BFD9
:1042D4006C0000205C0000204C000020885100008D
:1042E400400900207047034658B1426802F00302B7
:1042F400012A03D0032A04D1026812B10020986075
:1043040070476FF0150070474268034602F00302DD
:10431400032A4FF00002816014BF104600685A60FF
:104324007047002070470FB407B504A951F8040B77
:104334000191FCF78FF903B05DF804EB04B070470A
:10434400038B13F0070305D10368002B0CBF002077
:1043540003207047022B05D1438B002B14BF002090
:1043640004207047012B05D10368002B0CBF0020EB
:1043740005207047002070472DE9F0410D4607469F
:104384001946281D90461E46FFF7BEFF044638B165
:104394003346424629463846A446BDE8F0416047C4
:1043A400BDE8F08110B44FF02004EFF3118284F3E0
:1043B4001288BFF36F8F416110BC0121FCF758B91B
:1043C40010B50C4640B139B1081DFFF78CFF28B970
:1043D400A36833F0030301D06FF0150010BD38B5A6
:1043E4000C46054658B151B10B6843B14B6833B123
:1043F4001C22002100F025F900202C6138BD6FF04B
:104404001500FBE770B504460E46FFF7D9FF051EFD
:1044140031DB4FF02003EFF3118183F31288BFF3F4
:104424006F8F4FF6FF75638B208BAB4200F0070252
:104434002ED0022A0ED1013363831546012381F362
:104444001188BFF36F8FB3B1002331462046FFF7C5
:1044540093FF10E0830701D0062A0ED100233360B6
:10446400636893B9C4E90066154662B90A462046F2
:104474000221FCF7FDF8284670BD052A0CBF6FF039
:1044840085056FF004050023D9E71E606660EBE73D
:104494006FF00A05F7E7044608B5084611461A46C0
:1044A400A047FFF7D5FBFDF70BFA2DE9F74F994627
:1044B400D37814466F2BA3F1410206460F460192AE
:1044C4002DD028D8582B14BF0A251025AA464FF002
:1044D400000BDDF8308052465B4630463946FBF728
:1044E40037FE092AD3B21FD830335F45DBB208BF89
:1044F400564508F8013D01D3C84512D823789B06D8
:1045040005D5082D16D1A37843F00803A3704046BF
:1045140003B0BDE8F08F03F0F703702BD3E7082551
:10452400D4E706460F46D6E7019A192A94BF3733D3
:104534005733DAE7102DEAD1A37843F01003E5E707
:104544002DE9F0410746884615461E461446B442F6
:10455400A4EB050002D33EB923782BB1414614F8ED
:10456400010BB8470028F2DABDE8F081704784B047
:1045740004AB03E90700002383F31188BFF36F8FB3
:1045840004B070470022C0E9002282607047002016
:1045940008B5FCF713FD00F025BA0146006800F0E9
:1045A40021BA00210120FFF7F6BF08B5FCF742FF4E
:1045B400BDE80840FDF704B8436E83F30B887047E9
:1045C40040E800F313F4803FD8B208BF6FF0150041
:1045D40070477FB50A898E7A0B684D6802F01F0216
:1045E40042EA461200938DF8082023F01F036A1E46
:1045F400134423F01F030728039304D86946FDF7E7
:104604008DF904B070BD6FF01500FAE70346002081
:104614001A5C02B970470130FAE7034600201A5CBD
:104624000AB1884200D170470130F8E710B5431E43
:104634000A44914200D110BD11F8014B03F8014F17
:10464400F7E70346C9B20244934200D1704703F826
:10465400011BF9E74FF0FF307047CBB20C21026920
:1046640003FB0121886F00F0070070474FF020031F
:10467400EFF3118283F31288BFF36F8F036813F093
:10468400C00301D08B4207D101230360002082F3D1
:104694001188BFF36F8F70474FF0FF30F7E710B505
:1046A4004FF02003EFF3118283F31288BFF36F8F6F
:1046B400036803F00704012C06D10160002082F393
:1046C4001188BFF36F8F10BD03F0C0038B4214BF7A
:1046D4004FF0FF306FF07700F1E74FF02003EFF376
:1046E400118283F31288BFF36F8F036803F0C00352
:1046F40043F00203036082F31188BFF36F8F7047A6
:1047040010B41C240069CBB203FB0400002110BCCC
:1047140010470320FEF718BB0220FEF715BB00204C
:10472400FEF712BB0320FEF763BB0220FEF760BB5B
:104734000020FEF75DBB1046FEF73CBF38B50C23E6
:10474400CCB2634305460069783380211844FFF7EF
:104754008DFF002805DB696801EBC4046368984792
:10476400002038BD2DE9F8430C27CDB26F4304690E
:10477400064607F178008021204490469946FFF7C9
:104784008EFF002807DB3C44C4E91C89736853F896
:10479400353098470020BDE8F88370B50E460168AF
:1047A400154689B10C68002C38BF00248A682A4059
:1047B40002D030464B68984734B123682146002B19
:1047C40038BF00231C46F1E770BD436800205B68D6
:1047D4001B690B60704743685B68586842400A4035
:1047E40042405A6000207047436800205B6899602B
:1047F4007047436800205B68D960704743680020B5
:104804005A6853684B4053607047036930B5586821
:1048140058B10024814213D108685CB99C6858607F
:10482400A14200D198600020086072B9002030BD18
:104834002846EFE720609868814208BF9C60F2E751
:1048440005680446002DF3D13AB15A680A609868A5
:1048540059600028EAD19960E9E76FF01500E6E7AE
:104864002DE9F041012600250769D0F80480FC6891
:10487400D7E90532134324EA03040CB9BDE8F081F7
:10488400264210D0396998F80830E94001F0010156
:10489400C1F1030105F01F00C9B240EA4310FDF75E
:1048A400D5FB24EA060401357600E6E743681B6875
:1048B400D3F80423D10518D5D3F82021AAB14FF099
:1048C4002001EFF3118281F31288BFF36F8FD3F8C5
:1048D400201131B10021C3F82011D3F82011012196
:1048E400D96082F31188BFF36F8F42685268D20691
:1048F40015D54FF02001EFF3118281F31288BFF335
:104904006F8FD3F8581111B10021C3F800154FF47B
:104914008001C3F8081382F31188BFF36F8F7047C7
:104924000B460269D2E9010183E8030000207047C5
:1049340043681B68D3F88004C3F880047047426856
:104944001368D3F8580140B95268120706D4D3F853
:104954002001003818BF01207047012070474368C8
:1049640002691B68D3F8100148B10020527C0A7018
:10497400C3F81001D3F8102101221A6070474FF0D8
:10498400FF307047704770477047002008B5FCF748
:104994004FFFFFF737BB08B5FCF71EFCFCF7E2FC42
:1049A400BDE80840FFF72EBB004700F07BB908B50F
:1049B4000520FCF71BFD10B90520FCF707FD4FF09F
:1049C40050230122C3F81425C3F8802508BD70477D
:1049D40038B1C3681888C0F30800A0F58073584242
:1049E40058417047F8B505460E464FF02003EFF3E3
:1049F400118783F31288BFF36F8FFFF729F93146CC
:104A040004462846FFF7C1FF87F31188BFF36F8F71
:104A14002046BDE8F840FCF753BF30B5002484615C
:104A240041EA020414F00304C0E9023201610CD12A
:104A34004461A34203D1C0E90000002030BD4569B0
:104A440001340D6041611144F3E76FF01500F5E79F
:104A5400F8B504460D464FF02003EFF3118683F3B7
:104A64001288BFF36F8F476977B900F0BFF858B168
:104A74002A688767426100F05AF8314604F1080059
:104A8400BDE8F840FEF728BE2B6862691A602B68FF
:104A94006361A369013BA36186F31188BFF36F8F40
:104AA400F8BDEFF30580003818BF0120704708B542
:104AB400FCF728FBBDE80840FFF765BF034600206C
:104AC400C3E90033C3E902007047D0E90032136040
:104AD4005A600023C0E90033704708B5FFF7F5FFBB
:104AE400437B23F0020343730023836008BD034622
:104AF40020B9EFF305820AB9FCF7BCBC83F3118833
:104B0400BFF36F8F70474FF02003EFF3118083F3EF
:104B14001288BFF36F8FFFF7EABF03460068834232
:104B240003D0002838BF002070470020704710B51C
:104B34004FF02003EFF3118483F31288BFF36F8FD8
:104B4400FEF790FE84F31188BFF36F8F10BD01460A
:104B540010B54FF02003EFF3118483F31288BFF3F1
:104B64006F8F10F80B3C13F0280F0DD151F8103C47
:104B740018380BB1FFF7B1FF11F80B3C23F0140305
:104B840001F80B3CFEF76EFE84F31188BFF36F8FC0
:104B940010BD38B504460D46FEF7BAFE637B43F0FC
:104BA40002036373B5B12B68A5609D4208BF00235F
:104BB400002B38BF00239BB194F90E1093F90E20FB
:104BC400914208D0521A002A05DD5A68C4E900321D
:104BD40014605C6038BD6A68934201D01B68EAE7E0
:104BE4006B68C4E900531C606C60F3E738B54FF0A0
:104BF4002003EFF3118583F31288BFF36F8FFFF760
:104C04008CFF044620B1FFF768FF183000F006F867
:104C140085F31188BFF36F8F204638BD10B54FF070
:104C24002002EFF3118482F31288BFF36F8F0368BD
:104C34003BB1FFF789F8002084F31188BFF36F8F2D
:104C440010BD6FF01500F7E710B54FF02003EFF338
:104C5400118483F31288BFF36F8FFFF78FF884F307
:104C64001188BFF36F8F10BD70B504460D464FF029
:104C74002003EFF3118683F31288BFF36F8FFFF7DE
:104C84007DF8012805DDA04203DB29462046FDF717
:104C94005FFF86F31188BFF36F8F70BD08B5FFF710
:104CA4008BF908BD08B1FCF7E1B97047FDF7AEBF59
:084CB400D0B4FF7F01000000F5
:104CBC002110000000000000453200000000000040
:104CCC009749000000000000691C00000C4D00001A
:104CDC0049260000244D0000FD1E000000000000CD
:104CEC00CD2A00003C4D0000551F00006C4D00000B
:104CFC00551F0000544D00009B49000000000000AF
:104D0C00C15300006C50000058500000AC00002053
:104D1C0098070020C44F0000D5530000E850000055
:104D2C00D4500000B80000202C000020BC4F000024
:104D3C00DC5300000000000000000000BC0000205C
:104D4C0000000000B84F0000CE530000BC50000023
:104D5C0098500000B400002044080020B24F00001E
:104D6C00C7530000C850000098500000B00000204D
:084D7C0060080020AC4F0000AC
:104D840000000000A745000000000000A745000047
:104D940000000000A745000000000000A745000037
:104DA40000000000A7450000D12E0000AD4900001E
:104DB40000000000A745000000000000A745000017
:104DC400244D0000B148000000000000A745000089
:104DD40000000000A745000000000000A7450000F7
:104DE40000000000A745000000000000BD220000F4
:104DF40000000000A745000000000000A7450000D7
:104E040000000000A745000000000000A7450000C6
:104E140000000000A745000000000000A7450000B6
:104E240000000000A745000000000000E529000084
:104E340000000000A745000000000000A745000096
:104E440000000000A745000000000000A745000086
:104E540000000000A745000000000000A745000076
:104E640000000000A745000000000000A745000066
:104E740000000000A745000000000000A745000056
:104E840000000000A745000000000000A745000046
:104E940000000000A745000000000000A745000036
:104EA40000000000A745000000000000A745000026
:104EB40000000000A745000000000000A745000016
:104EC40000000000A745000000000000A745000006
:104ED40000000000A745000000000000A7450000F6
:104EE40000000000A745000000000000A7450000E6
:104EF40000000000A745000000000000A7450000D6
:104F040000000000A745000000000000A7450000C5
:104F140000000000A745000000000000A7450000B5
:104F240000000000A745000000000000A7450000A5
:104F340000000000A745000000000000A745000095
:104F440000000000A745000000000000A745000085
:104F540000000000A745000000000000A745000075
:104F640000000000A745000000000000A745000065
:104F740000000000A745000000000000A745000055
:104F840000000000A745000000000000A745000045
:104F940000000000A745000000000000A745000035
:084FA40000000000A745000019
:104FAC00FF7FFF7FFF7FFF7FFF7FFF7FFF7FFF7F05
:104FBC00FF7FFF7FFF7FFF7FFF7FFF7FFF7FFF7FF5
:044FCC00FFFFFFFFE5
:104FD0000338FDD870470000544D00001711000041
:104FE000544D000018110000544D0000081100003D
:104FF000544D00000911000000000000934500001E
:10500000911200004912000001130000E911000094
:1050100020000020080000201800002000000000F0
:105020001000002000000020000000000600010029
:10503000020000003850000000000000B2530000E1
:1050400006000000E0FF0F0000000020BA5300003F
:1050500021000000E0FF0620BD1D000041470000C8
:1050600069470000000000005F460000351D000099
:10507000991D000023470000354700001D47000030
:105080002F4700001747000029470000111C0000AF
:10509000C91B000000000000851F0000CF47000072
:1050A000DB470000ED470000F74700000148000023
:1050B000152100000F48000000000000FFFFFFFF67
:1050C0000025845000000000FFFF000000288450ED
:1050D000010000006349000031250000354900004F
:1050E0007D23000025490000008000500B000000D7
:1050F000140000001600000015000000130000005E
:1051000003030000BC4C0000EC4C0000F44C000019
:105110000C4D00000C4D0000F5FFFFFFFF8FFFFF5F
:10512000FF8FFFFFFE8FFFFFFE8FFFFFFD8FFFFF53
:10513000FC8FFFFFFC8FFFFFFB8FFFFF6D7574651A
:10514000785F667265652063616C6C656420776961
:105150007468204E554C4C20706172616D657465A9
:105160007200000043616E277420696E6974696182
:105170006C697A65206D757465782C207761732071
:105180004E554C4C0D0A0000436F756C64206E6FD9
:1051900074206C6F636B20706F776572207361761B
:1051A00065206D75746578004D61704C6973746E1F
:1051B000657253746174655B25645D203D202564D0
:1051C0000A004661696C656420746F20696E6974B9
:1051D000696174656420747261696C6572206C69C0
:1051E0007374656E65722C2073746F7020617070BB
:1051F0000A00496E69746961746564206E65772080
:10520000747261696C6572206C697374656E657225
:1052100020696E7374616E63652070726F70657261
:105220006C790A004572726F723A204661696C654A
:105230006420746F207265616420747261696C65AA
:10524000722073746174652C20736B6970207570A3
:10525000646174650A005265636569766564206DF2
:1052600061702073746174653A2025640A00457288
:10527000726F723A20706173736564206E756C6C26
:10528000206E616D6520746F20747261696C657247
:105290005F6C697374656E65725F6765745F766174
:1052A0006C7565732066756E6374696F6E0A00476E
:1052B00050494F20706F7274206973207265616469
:1052C000792C20636F6E66696775726520616C6CFE
:1052D000207468652070696E732070726F706572DB
:1052E0006C792E0A004572726F723A204750494F0E
:1052F00020706F7274202573206973206E6F742084
:1053000072656164790A004572726F723A20466173
:10531000696C656420746F20636F6E66696775726F
:1053200065206770696F2070696E3A2025640A00F5
:10533000286E696C29004661696C656420746F2071
:105340007265626F6F743A207370696E6E696E6712
:1053500020656E646C6573736C792E2E2E0A006D59
:10536000757465785F696E69742063616C6C6564DF
:105370002077697468204E554C4C20706172616DC5
:105380006574657200436F756C64206E6F74206184
:105390006C6C6F63617465206D75746578206265EF
:1053A000666F726520696E697469616C697A696E8D
:1053B0006700464C4153485F30005352414D5F30C7
:1053C00000434C4F434B004750494F5F310047501B
:1053D000494F5F3000554152545F30007379735F1D
:1053E000636C6F636B0001000000010100006D61E0
:1053F000696E0076322E372E302D6E637331002A9F
:105400002A2A20426F6F74696E67205A6570687926
:1054100072204F53206275696C64202573202573B8
:08542000202A2A2A0A000000DC
:105428002743000001000000C00000200100000028
:10543800D400002001000000E80000200100000066
:10544800FC00002001000000594600000000000098
:1054580000C201000001030000000000000000007D
:105468000090D00344000020440000200000000009
:1054780041400000300900201100000009410000EF
:10548800B540000025410000DD40000090000020EC
:105498005400002088000020000000008000002048
:1054A8003409002011000000380900201100000014
:1054B8003C09002011000000700000207C00002042
:0C54C800740000206C000020A0000020F8
:1054D40000000000000000000000000000000000C8
:0454E40000000000C4
:1054E800C0000020C00000200000000000000000F4
:1054F8000E000000D4000020D400002000000000AE
:10550800000000000E000000E8000020E800002075
:1055180000000000000000000E000000FC00002059
:10552800FC00002000000000000000000E00000049
:04000003000017D50D
:00000001FF
